{
  "_format": "hh-sol-artifact-1",
  "contractName": "BasicProgramming",
  "sourceName": "contracts/BasicProgramming.sol",
  "abi": [
    {
      "inputs": [],
      "name": "ans",
      "outputs": [
        {
          "internalType": "bool",
          "name": "",
          "type": "bool"
        }
      ],
      "stateMutability": "view",
      "type": "function"
    },
    {
      "inputs": [
        {
          "internalType": "int256",
          "name": "n",
          "type": "int256"
        }
      ],
      "name": "armstrong",
      "outputs": [],
      "stateMutability": "nonpayable",
      "type": "function"
    },
    {
      "inputs": [],
      "name": "getAns",
      "outputs": [
        {
          "internalType": "bool",
          "name": "",
          "type": "bool"
        }
      ],
      "stateMutability": "view",
      "type": "function"
    },
    {
      "inputs": [
        {
          "internalType": "int256",
          "name": "n",
          "type": "int256"
        }
      ],
      "name": "palindrome",
      "outputs": [],
      "stateMutability": "nonpayable",
      "type": "function"
    },
    {
      "inputs": [
        {
          "internalType": "int256",
          "name": "n",
          "type": "int256"
        }
      ],
      "name": "perfect",
      "outputs": [],
      "stateMutability": "nonpayable",
      "type": "function"
    }
  ],
  "bytecode": "0x608060405234801561001057600080fd5b5061053b806100206000396000f3fe608060405234801561001057600080fd5b50600436106100575760003560e01c80631bc5daa21461005c5780631c4c99d514610078578063639c31b014610094578063a71ddb53146100b0578063d5949ef4146100ce575b600080fd5b610076600480360381019061007191906102a5565b6100ec565b005b610092600480360381019061008d91906102a5565b61015d565b005b6100ae60048036038101906100a991906102a5565b6101d8565b005b6100b8610243565b6040516100c591906102ed565b60405180910390f35b6100d6610254565b6040516100e391906102ed565b60405180910390f35b600081905060005b600082131561013d576000600a8361010c9190610337565b905080600a8361011c9190610397565b610126919061040f565b9150600a836101359190610453565b9250506100f4565b8281146000806101000a81548160ff021916908315150217905550505050565b600081905060005b60008213156101b8576000600a8361017d9190610337565b905080818261018c9190610397565b6101969190610397565b826101a1919061040f565b9150600a836101b09190610453565b925050610165565b8281146000806101000a81548160ff021916908315150217905550505050565b6000819050600080600190505b8281121561022257600081846101fb9190610337565b0361020f57808261020c919061040f565b91505b808061021a906104bd565b9150506101e5565b508281146000806101000a81548160ff021916908315150217905550505050565b60008054906101000a900460ff1681565b60008060009054906101000a900460ff16905090565b600080fd5b6000819050919050565b6102828161026f565b811461028d57600080fd5b50565b60008135905061029f81610279565b92915050565b6000602082840312156102bb576102ba61026a565b5b60006102c984828501610290565b91505092915050565b60008115159050919050565b6102e7816102d2565b82525050565b600060208201905061030260008301846102de565b92915050565b7f4e487b7100000000000000000000000000000000000000000000000000000000600052601260045260246000fd5b60006103428261026f565b915061034d8361026f565b92508261035d5761035c610308565b5b828207905092915050565b7f4e487b7100000000000000000000000000000000000000000000000000000000600052601160045260246000fd5b60006103a28261026f565b91506103ad8361026f565b92508282026103bb8161026f565b91507f800000000000000000000000000000000000000000000000000000000000000084146000841216156103f3576103f2610368565b5b828205841483151761040857610407610368565b5b5092915050565b600061041a8261026f565b91506104258361026f565b92508282019050828112156000831216838212600084121516171561044d5761044c610368565b5b92915050565b600061045e8261026f565b91506104698361026f565b92508261047957610478610308565b5b600160000383147f8000000000000000000000000000000000000000000000000000000000000000831416156104b2576104b1610368565b5b828205905092915050565b60006104c88261026f565b91507f7fffffffffffffffffffffffffffffffffffffffffffffffffffffffffffffff82036104fa576104f9610368565b5b60018201905091905056fea26469706673582212204ff21deb7c2a3b7fa2311d54f6ba10df664531122eb819ea05ee673e0992b73764736f6c63430008110033",
  "linkReferences": {},
  "deployedLinkReferences": {}
}